:100000000C9446000C9465000C9465000C946500FB
:100010000C9465000C9465000C9465000C946500CC
:100020000C9465000C9465000C9465000C946500BC
:100030000C9465000C94DE000C9465000C94650033
:100040000C9465000C9465000C9465000C9465009C
:100050000C9465000C9465000C9465000C9465008C
:100060000C9465000C9465000C9465000C9465007C
:100070000C9465000C9465000C9465000C9465006C
:100080000C9465000C9465000C94650011241FBE4F
:10009000CFEFD0E4DEBFCDBF11E0A0E0B1E0ECEAED
:1000A000F7E000E00BBF02C007900D92A431B1074A
:1000B000D9F721E0A4E1B1E001C01D92A832B20756
:1000C000E1F70E94EE020C94D4030C940000CF934D
:1000D000DF9300D01F92CDB7DEB789837B836A831D
:1000E00089818A3031F48A819B81BC018DE00E9434
:1000F000670080EC90E0FC018081882F90E08072A6
:100100009927892BB1F386EC90E02981FC012083AB
:1001100080E090E00F900F900F90DF91CF910895C5
:10012000CF93DF93CDB7DEB781E890E02BE0FC0101
:10013000208388E890E02DE730E0FC0131832083C4
:100140008FE690E022E0FC01208384E890E0FC014F
:100150001182108280910E0190910F01A0911001E7
:10016000B09111018093150190931601A09317018E
:10017000B09318018FE590E02FE530E0F901208180
:100180002068FC0120830000DF91CF910895CF9378
:10019000DF93CDB7DEB781E890E0FC01108200006C
:1001A000DF91CF910895CF93DF93CDB7DEB781E094
:1001B000809314010000DF91CF9108951F920F9258
:1001C00000905F000F92112400905B000F922F931C
:1001D0003F934F935F936F937F938F939F93AF93CF
:1001E000BF93EF93FF93CF93DF93CDB7DEB78091AB
:1001F000150190911601A0911701B0911801019776
:10020000A109B1098093150190931601A0931701DC
:10021000B09318018091150190911601A0911701DA
:10022000B0911801892B8A2B8B2B91F40E94D3005B
:1002300080910E0190910F01A0911001B0911101D8
:100240008093150190931601A0931701B0931801A4
:100250000000DF91CF91FF91EF91BF91AF919F91FE
:100260008F917F916F915F914F913F912F910F905F
:1002700000925B000F9000925F000F901F90189506
:10028000CF93DF9300D000D0CDB7DEB769837A83F8
:100290008B839C8389819A81AB81BC8180930E0181
:1002A00090930F01A0931001B093110180910E0162
:1002B00090910F01A0911001B0911101809315014F
:1002C00090931601A0931701B093180100000F90AE
:1002D0000F900F900F90DF91CF910895CF93DF9300
:1002E000CDB7DEB780912401909125018130910531
:1002F00081F08130910530F08230910589F00397CB
:10030000B1F01CC081E090E090932501809324011E
:1003100015C082E090E090932501809324010EC0E7
:1003200083E090E0909325018093240107C081E051
:1003300090E0909325018093240100008091240196
:10034000909125018130910549F08130910590F01F
:100350008230910539F0039749F00DC081E0809318
:100360001A0109C082E080931A0105C084E08093DD
:100370001A0101C000000000DF91CF910895CF93D2
:10038000DF93CDB7DEB780912201909123018130B8
:10039000910569F08130910518F0029779F015C048
:1003A00081E090E090932301809322010EC082E0CF
:1003B00090E0909323018093220107C081E090E0B8
:1003C000909323018093220100008091220190915B
:1003D00023018130910531F08130910550F0029771
:1003E00029F008C088E08093190104C01092190117
:1003F00001C000000000DF91CF910895CF93DF93FB
:10040000CDB7DEB780911D0190911E01813091051D
:1004100069F08130910518F00297B1F01CC081E0BD
:1004200090E090931E0180931D0115C080911F01E3
:10043000843019F482E090E002C081E090E0909373
:100440001E0180931D0107C081E090E090931E0182
:1004500080931D01000080911D0190911E0181304B
:10046000910531F08130910550F0029721F008C0DC
:1004700010921B0105C080E180931B0101C00000A8
:100480000000DF91CF910895CF93DF93CDB7DEB712
:1004900080912001909121018130910581F081307E
:1004A000910530F08230910541F1039769F134C034
:1004B00081E090E090932101809320012DC08091F4
:1004C0001F01882F90E081709927892B39F082E0F5
:1004D00090E090932101809320011DC080911F0125
:1004E000882F90E082709927892BA9F083E090E013
:1004F00090932101809320010EC081E090E09093C1
:1005000021018093200108C081E090E090932101B7
:100510008093200101C00000809120019091210171
:1005200081309105C9F081309105C0F0823091058C
:1005300019F0039739F015C0809112018F5F8093F5
:1005400012010FC080911201882351F08091120195
:1005500081508093120104C0000003C0000001C05C
:1005600000000000DF91CF910895CF93DF93CDB7C6
:10057000DEB78091260190912701009719F001972D
:1005800041F00EC081E090E0909327018093260116
:1005900007C081E090E0909327018093260100003E
:1005A0008091260190912701009769F0019761F4ED
:1005B0009091190180911A01982B80911B01892B30
:1005C00080931C0101C0000085E290E020911C0195
:1005D000FC0120830000DF91CF910895CF93DF933A
:1005E000CDB7DEB764970FB6F894DEBF0FBECDBFB0
:1005F00081E290E0FC01108282E290E02FEFFC01AA
:10060000208384E290E02FEFFC01208385E290E0DC
:10061000FC01108261E070E080E090E00E94400107
:100620000E94900010922501109224011092230143
:100630001092220110921E0110921D0110922701AA
:100640001092260110921E0110921D01109221019C
:100650001092200119821A821B821C821D821E8226
:100660001F82188619861A861B861C861D861E8682
:100670001F86188A81E090E0A0E0B0E0898B9A8B19
:10068000AB8BBC8B80E290E0FC01808180958093F5
:100690001F0189819A81AB81BC81883E9340A1056D
:1006A000B10530F00E94BF0119821A821B821C82A0
:1006B0008D819E81AF81B8858C329140A105B105B5
:1006C00030F00E946E011D821E821F82188680916A
:1006D0001201282F30E040E050E089859A85AB85F3
:1006E000BC8582179307A407B50730F00E94FE016E
:1006F00019861A861B861C868D859E85AF85B889CE
:100700004497A105B10530F00E9444021D861E8663
:100710001F86188A0E94B502000080911401882368
:10072000E1F31092140129813A814B815C8189891E
:100730009A89AB89BC89820F931FA41FB51F898337
:100740009A83AB83BC832D813E814F8158858989F3
:100750009A89AB89BC89820F931FA41FB51F8D8313
:100760009E83AF83B88729853A854B855C858989C7
:100770009A89AB89BC89820F931FA41FB51F8987F3
:100780009A87AB87BC872D853E854F855889898997
:100790009A89AB89BC89820F931FA41FB51F8D87CF
:0C07A0009E87AF87B88B6ECFF894FFCF18
:1007AC0000000002000000006700000000000100D3
:0407BC000000020037
:00000001FF
